:0A04C900EF1FAC0670011E4C600E20
:0C04D300751C02751DEFD51DFDD51CFA2F
:0304DF0080E82290
:0B055500EF1FAC0670011E4C70F62278
:100527000216000002180000021A0000020E000066
:100283001204FAE4F510F511F512751301F514755E
:10029300150278307C00FDFB7A007910FE7F061290
:1002A30000D3120421750800750901750A00750B46
:1002B30001750C00750D0278307C007D007B007A9F
:0D02C3000079087E007F061200D30204219E
:0E053800E4FFFE0FBF00010EEF64084E70F5E9
:010546002292
:10042100E5307024E53114601004701CAB33AA323E
:10043100AD35AC34E4FFFE800CAB33AA32AD35AC44
:09044100347F017E001203F12258
:1002D0001204FA7FB87E0B1204C97B047A00E4FD95
:1002E000FCFFFE1203F17FB87E0B1204C97B087A73
:1002F000007D017C007F017E001203F17FB87E0B40
:100300001204C97B017A007D027C00E4FFFE120327
:03031000F180FE7B
:1004E200040E1504040404040404040404150E0494
:0804F2000000001F1F000000C4
:08056A007F027EEFDEFEDFFCE4
:010572002266
:0E054700C2A68F80D2A712056AC2A702056A5B
:10046D00CFCDCFCECCCE1201387C007D0A12013813
:04047D00ED2430FF3B
:0E048100D2A68F80D2A712056AC2A702056A12
:10051100AE07BE0104ED148006BE0209ED243F447E
:0605210080FF12054722D5
:1004FA007F381205477F0C1205477F061205477F92
:07050A00011205470202196E
:0A056000AC03120511AF0402048180
:06044A008B408A4189424B
:10045000120511E4FDAB40AA41A9428D82758300CB
:0C0460001200F9FF60061204810D80E913
:01046C00226D
:0C03BE007F0AEA24FFFDE434FFFC7E000F
:0803CA008E258F268C278D285B
:1003D2007F017E00E4FBEBC39528E5276480F87477
:0E03E2008098500AAC25AD261201260B80E84B
:0103F00022EA
:04048F008A228B230F
:10049300120511AA24EAD39400400D1203BEAC2224
:0804A300AD2312046D1A80ED77
:0104AB00222E
:10031300120511C3EA64809480400B7F2B12048181
:100323008A2E8B2F800E7F2D120481C3E49BF52F21
:10033300E49AF52EAA2DEAD39400400D1203BEAC25
:090343002EAD2F12046D1A80ED9D
:01034C00228E
:04034D008A388B3926
:10035100120511AA3AEAD3940040297F101203C072
:10036100AC38AD39CFCDCFCECCCE120138EF540F52
:10037100FEC3940AEE5004243080022437FF120495
:04038100811A80D18C
:010385002255
:040386008A3D8B3EE3
:10038A00120511AA3FEAD394004028EA24FFFDE4AB
:10039A0034FFFC7F027E001203CAAC3DAD3ECFCDD6
:1003AA00CFCECCCE120138EF54012430FF12048193
:0303BA001A80D2D4
:0103BD00221D
:100219007F40120547E4FDFC74E22DF58274043C2D
:10022900F583E493FF1204810DBD00010CED640810
:100239004C70E57F48120547E4FCFD74EA2DF58210
:1002490074043CF583E493FF1204810DBD00010C95
:10025900ED64084C70E57F50120547E4FCFD74F22B
:100269002DF58274043CF583E493FF1204810DBDDE
:0902790000010CED64084C70E575
:010282002259
:1003F1008C1C8D1D8A1E8B1FEE7024EF1460070468
:10040100701D7D0380027D0C7F01120511AF1D124D
:100411000481AA1EAB1F7524020D7F0112048F22D5
:1004AC007B017A007D027C00E4FFFE1203F17B01EC
:0D04BC007A007D027C007F017E000203F1CA
:0300000002018D6D
:0C018D00787FE4F6D8FD7581420201D4B1
:10000300E709F608DFFA8046E709F208DFFA803EDF
:1000130088828C83E709F0A3DFFA8032E309F608CC
:10002300DFFA8078E309F208DFFA807088828C8334
:10003300E309F0A3DFFA806489828A83E0A3F608E8
:10004300DFFA805889828A83E0A3F208DFFA804CC2
:1000530080D280FA80C680D4806980F28033801099
:1000630080A680EA809A80A880DA80E280CA803302
:1000730089828A83ECFAE493A3C8C582C8CCC5837A
:10008300CCF0A3C8C582C8CCC583CCDFE9DEE7804A
:100093000D89828A83E493A3F608DFF9ECFAA9F0C9
:1000A300EDFB2289828A83ECFAE0A3C8C582C8CC1F
:1000B300C583CCF0A3C8C582C8CCC583CCDFEADE38
:1000C300E880DB89828A83E493A3F208DFF980CC9A
:1000D30088F0EF60010E4E60C388F0ED2402B40493
:1000E3000050B9F582EB2402B4040050AF2323453A
:0600F3008223900053730C
:1000F900BB010CE58229F582E5833AF583E02250BC
:1001090006E92582F8E622BBFE06E92582F8E22205
:0D011900E58229F582E5833AF583E493221F
:10012600EF8DF0A4A8F0CF8CF0A428CE8DF0A42EED
:02013600FE22A7
:10013800BC000BBE0029EF8DF084FFADF022E4CCAB
:10014800F875F008EF2FFFEE33FEEC33FCEE9DEC74
:10015800984005FCEE9DFE0FD5F0E9E4CEFD22EDBA
:10016800F8F5F0EE8420D21CFEADF075F008EF2F04
:10017800FFED33FD4007985006D5F0F222C398FDF5
:050188000FD5F0EA2292
:100199000202D0E493A3F8E493A34003F68001F2AA
:1001A90008DFF48029E493A3F85407240CC8C33367
:1001B900C4540F4420C8834004F456800146F6DF36
:1001C900E4800B0102040810204080900527E47E9A
:1001D900019360BCA3FF543F30E509541FFEE4932B
:1001E900A360010ECF54C025E060A840B8E493A3F2
:1001F900FAE493A3F8E493A3C8C582C8CAC583CA1D
:10020900F0A3C8C582C8CAC583CADFE9DEE780BED4
:0105370000C3
:00000001FF
