:0A105F00EF1FAC0670011E4C600E7E
:0C1069007523027524EFD524FDD523FA71
:0310750080E822EE
:0B10F400EF1FAC0670011E4C70F622CE
:1010D5000216000002180000021A0000020E0000AD
:100F9400120FB8120A08120003E4F51CF51D120A18
:100FA40008051DE51D7002051CC39480E51C940012
:040FB40040EC80DFAE
:100FB8001210A8E4F510F511F512751301F5147562
:100FC8001502F508750901F50A750B01F50C750D83
:040FD80002020ECB38
:100ECB007D037F011210BFAF15121013752202ABF9
:100EDB0013AA127D047F011210427D0C7F011210A8
:100EEB00BFAF0D121013752202AB0BAA0A7D0D7F3B
:040EFB00010210429E
:100A080030972CA295E43325E0FFA296E43325E045
:100A180025E04FFFA294E4334FFF74017E00A8073E
:100A2800088005C333CE33CED8F94217EE421630CC
:100A3800B72CA2B5E43325E0FFA2B6E43325E025C0
:100A4800E04FFFA2B4E4334FFF74017E00A807080B
:100A58008005C333CE33CED8F94219EE421830930D
:100A68002CA291E43325E0FFA292E43325E025E0AF
:100A78004FFFA290E4334FFF74017E00A80708805F
:100A880005C333CE33CED8F9421BEE421A30B32C0D
:100A9800A2B1E43325E0FFA2B2E43325E025E04F1C
:100AA800FFA2B0E4334FFF74017E00A80708800559
:0F0AB800C333CE33CED8F9420FEE420E020C827A
:100C8200E4F51EE51E1392A0E51EA2E192A1A2E2E6
:100C920092A2FFE517AE16A807088006CEA2E713B8
:100CA200CE13D8F85401FFC007E519AE18A81E08E4
:100CB2008006CEA2E713CE13D8F85401FDE51BAE91
:100CC2001AA81E088006CEA2E713CE13D8F8540144
:100CD200FBE50FAE0EA81E088006CEA2E713CE13C8
:100CE200D8F85401F522D007120DD6051EE51EC311
:040CF2009408408F93
:010CF60022DB
:10085800E51545147067120F658E1A8F1BAD13AC22
:1008680012AF17AE16120F6D8E168F17AD13AC128E
:10087800121080D3EF9400EE648094804003020944
:100888002CAD13AC1212107CD3EF9400EE6480945C
:1008980080400302092CAD13AC12AF0FAE0E12103C
:1008A80080D3EF9400EE648094805078AD13AC123E
:1008B800AF0FAE0E120F6D8E0E8F0F8067E51564A9
:1008C800014514705FAD13AC12AF0FAE0E120F6D71
:1008D8008E0E8F0FAD13AC12AF17AE16120F6D8EB2
:1008E800168F17AD13AC12120F07D3EF9400EE64F6
:1008F800809480502FAD13AC12120F03D3EF9400E5
:10090800EE64809480501DAD13AC12AF1BAE1A126A
:100918000F07D3EF9400EE648094805007120F65A0
:100928008E1A8F1BE50D450C706AAD0BAC0A120FC1
:10093800698E1A8F1BAD0BAC0AAF19AE18120F6D6A
:100948008E188F19AD0BAC0AAF17AE16121080D3E4
:10095800EF9400EE648094804003020A0712107836
:10096800D3EF9400EE648094804003020A07AD0B35
:10097800AC0AAF0FAE0E121080D3EF9400EE648075
:100988009480507BAD0BAC0AAF0FAE0E120F6D8E7C
:100998000E8F0F22E50D6401450C7063AD0BAC0A98
:1009A800AF0FAE0E120F6D8E0E8F0FAD0BAC0AAFE0
:1009B80019AE18120F6D8E188F19AD0BAC0AAF1740
:1009C800AE16120F07D3EF9400EE64809480502F78
:1009D800120EFFD3EF9400EE648094805021AD0B8B
:1009E800AC0AAF1BAE1A120F07D3EF9400EE648067
:1009F8009480500BAD0BAC0A120F698E1A8F1B2214
:100DD6008D208B21EF600DC2A3C2A4C2A57F017E28
:100DE6000012105FE520600DD2A3C2A4C2A57F0148
:100DF6007E0012105FE521600DC2A3D2A4C2A57FBA
:100E0600017E0012105FE522600DD2A3D2A4C2A516
:0A0E16007F017E0012105FD2A522BA
:08107800AD0BAC0AAF1BAE1A70
:10108000EFA805088006CEA2E713CE13D8F8FF22FA
:080EFF00AD0BAC0AAF0FAE0E03
:100F0700AB07AA06ED14F9EBA801088006CEA2E705
:100F170013CE13D8F8A801088005C333CE33CED833
:0B0F2700F9F4FFEEF45AFEEF5BFF222E
:040AC700AB07AA06C9
:100ACB00900020EB7810CEA2E713CE13D8F8FF4E90
:100ADB00601074F02582F58274FF3583F583AA06C6
:100AEB00AB07EAFF3395E0FE4F601074F82582F5F3
:100AFB008274FF3583F583AA06AB07EBAE0278044D
:100B0B00CEA2E713CE13D8F8FF4E601074FC2582EB
:100B1B00F58274FF3583F583AA06AB07EBAE02783B
:100B2B0002CEA2E713CE13D8F8FF4E601074FE2549
:100B3B0082F58274FF3583F583AA06AB07EAA2E739
:100B4B0013FEEB134EC3E5829BFDE5839AFCC37446
:060B5B00209DFFE49CFE5A
:010B61002271
:100CF700EF4E7003FEFF227D017C00EF4E701374F0
:100D0700102DFDE433FCEF7810CEA2E713CE13D8F5
:100D1700F8FFEF700D74082DFDE43CFCEEFF3395F2
:100D2700E0FEEF540F701374042DFDE43CFCEF78E4
:100D370004CEA2E713CE13D8F8FFEF540370137451
:100D4700022DFDE43CFCEF7802CEA2E713CE13D8C8
:100D5700F8FFEF5401FFC3ED9FFFEC9400CF240190
:040D6700CF3400FE87
:010D6B002265
:10102100AB07AA06ED14FF74017E00A8070880052E
:10103100C333CE33CED8F94203EE4202AE02AF0340
:01104100228C
:080F6500AD13AC12AF1BAE1A74
:100F6D00AB07AA06ED14FF74017E00A807088005E3
:100F7D00C333CE33CED8F9F4FFEEF4FEEF5203EEC9
:070F8D005202AE02AF032285
:10000300E5156402451460030203CBE50D64024564
:100013000C60030201FBAD13AC12AF17AE16120F47
:100023006DEF4E603BAD13AC12AF17AE16121080DE
:10003300EF4E600FE4F514F5150513E51370210574
:1000430012801DAD13AC12AF17AE16120F07EF4E91
:10005300600E751400751501E51315137002151262
:10006300E50B450A7C0060047D0180027D00AF1929
:10007300AE18120F6DEF4E603BAD0BAC0AAF19AE6D
:1000830018121080EF4E600FE4F50CF50D050BE52B
:100093000B7021050A801DAD0BAC0AAF19AE181207
:1000A3000F07EF4E600E750C00750D01E50B150B78
:1000B3007002150AE51564024514600BE50B640232
:1000C300450A6003020852E5156402451460030201
:1000D300016A120F65EF4E603EAD13AC1212107C35
:1000E300EF4E6010E4F514F5150513E5137075056F
:1000F30012020852AD13AC12AF1BAE1A120F07EF68
:100103004E7003020852751400751501E51315139B
:1001130070021512020852AD13AC12AF0FAE0E12DD
:100123000F6DEF4E7003020852AD13AC12AF0FAE5A
:100133000E121080EF4E6010E4F514F5150513E56B
:100143001370020512020852AD13AC12120F03EF23
:100153004E7003020852751400751501E51315134B
:1001630070021512020852AD0BAC0A120F69EF4E62
:10017300603A121078EF4E6010E4F50CF50D050BA4
:10018300E50B7002050A020852AD0BAC0AAF1BAEB9
:100193001A120F07EF4E7003020852750C00750D0B
:1001A30001E50B150B7002150A020852AD0BAC0AE0
:1001B300AF0FAE0E120F6DEF4E7003020852AD0B70
:1001C300AC0AAF0FAE0E121080EF4E6010E4F50CC8
:1001D300F50D050BE50B7002050A020852120EFF1E
:1001E300EF4E7003020852750C00750D01E50B15F7
:1001F3000B7002150A020852E50D450C600302025A
:10020300E8AD13AC12AF17AE16120F6DEF4E603D93
:10021300AD13AC12AF17AE16121080EF4E600FE4A1
:10022300F514F5150513E51370210512806CAD1354
:10023300AC12AF17AE16120F07EF4E605D751400C8
:10024300751501E513151370021512804D120F6514
:10025300EF4E700FAD13AC12AF0FAE0E120F6DEF6A
:100263004E6037AD13AC1212107CEF4E700FAD130E
:10027300AC12AF0FAE0E121080EF4E600FE4F51408
:10028300F5150513E51370120512800E751400752C
:1002930015010513E51370020512121078EF4E7065
:1002A3000FAD0BAC0AAF19AE18121080EF4E600BF6
:1002B300050BE50B7002050A020852120EFFEF4E02
:1002C300700FAD0BAC0AAF19AE18120F07EF4E60EB
:1002D30011750C00750D01E50B150B7002150A0263
:1002E300085202084CAD13AC12AF17AE16120F6DC5
:1002F300EF4E603DAD13AC12AF17AE16121080EF88
:100303004E600FE4F514F5150513E513702105127E
:10031300806CAD13AC12AF17AE16120F07EF4E6021
:100323005D751400751501E5131513700215128020
:100333004D120F65EF4E700FAD13AC12AF0FAE0E33
:10034300120F6DEF4E6037AD13AC1212107CEF4EEF
:10035300700FAD13AC12AF0FAE0E121080EF4E60E4
:100363000FE4F514F5150513E51370120512800E4D
:100373007514007515010513E51370020512120EAD
:10038300FFEF4E700FAD0BAC0AAF19AE18120F078B
:10039300EF4E600BE50B150B7002150A02085212A3
:1003A3001078EF4E700FAD0BAC0AAF19AE181210E8
:1003B30080EF4E6010E4F50CF50D050BE50B7002B4
:1003C300050A02085202084CE515451460030206AB
:1003D30011E50D6402450C60030204CBAD0BAC0ABE
:1003E300AF19AE18120F6DEF4E603DAD0BAC0AAFF7
:1003F30019AE18121080EF4E600FE4F50CF50D05E1
:100403000BE50B7021050A806CAD0BAC0AAF19AE7E
:1004130018120F07EF4E605D750C00750D01E50BAB
:10042300150B7002150A804DAD0BAC0A120F69EF64
:100433004E700FAD0BAC0AAF0FAE0E120F6DEF4E39
:100443006033121078EF4E700FAD0BAC0AAF0FAEE6
:100453000E121080EF4E600FE4F50CF50D050BE561
:100463000B7012050A800E750C00750D01E50B1556
:100473000B7002150AAD13AC1212107CEF4E700F05
:10048300AD13AC12AF17AE16121080EF4E600B0512
:1004930013E51370020512020852AD13AC12AF1725
:1004A300AE16120F07EF4E700EAD13AC12120F0300
:1004B300EF4E7003020704751400751501E513155B
:1004C3001370021512020852E50D450C6003020574
:1004D30073AD13AC12AF17AE16121080EF4E700B44
:1004E300AD13AC1212107CEF4E600A0513E51370C6
:1004F3003405128030AD13AC12AF17AE16120F07CE
:10050300EF4E700BAD13AC12120F03EF4E6010756C
:100513001400751501E5131513700A15128006757D
:100523001400751502AD0BAC0AAF19AE181210808A
:10053300EF4E7007121078EF4E600B050BE50B7052
:1005430002050A020852AD0BAC0AAF19AE18120F1E
:1005530007EF4E7007120EFFEF4E6011750C00751A
:100563000D01E50B150B7002150A02085202084C27
:10057300AD13AC12AF17AE16121080EF4E700BAD69
:1005830013AC1212107CEF4E600A0513E51370349E
:1005930005128030AD13AC12AF17AE16120F07EF72
:1005A3004E700BAD13AC12120F03EF4E60107514A7
:1005B30000751501E5131513700A151280067514DD
:1005C30000751502AD0BAC0AAF19AE18120F07EF89
:1005D3004E7007120EFFEF4E600BE50B150B70020A
:1005E300150A020852121078EF4E700FAD0BAC0AC9
:1005F300AF19AE18121080EF4E6010E4F50CF50D34
:10060300050BE50B7002050A02085202084CE50DC2
:100613006402450C600302070DAD0BAC0AAF19AEC3
:1006230018120F6DEF4E603DAD0BAC0AAF19AE184B
:10063300121080EF4E600FE4F50CF50D050BE50B82
:100643007021050A806CAD0BAC0AAF19AE18120FFE
:1006530007EF4E605D750C00750D01E50B150B7012
:1006630002150A804DAD0BAC0A120F69EF4E700FE5
:10067300AD0BAC0AAF0FAE0E120F6DEF4E6033121F
:100683001078EF4E700FAD0BAC0AAF0FAE0E121019
:1006930080EF4E600FE4F50CF50D050BE50B7002D2
:1006A300050A800E750C00750D01E50B150B700224
:1006B300150AAD13AC12AF17AE16120F07EF4E703B
:1006C3000BAD13AC12120F03EF4E600BE5131513B2
:1006D30070021512020852AD13AC12AF17AE161208
:1006E3001080EF4E700BAD13AC1212107CEF4E6006
:1006F30010E4F514F5150513E5137002051202084D
:1007030052751400751502020852E50D450C60037D
:100713000207B4AD13AC12AF17AE16120F07EF4EAC
:10072300700BAD13AC12120F03EF4E600AE51315F5
:100733001370331512802FAD13AC12AF17AE161210
:100743001080EF4E700BAD13AC1212107CEF4E60A5
:100753000FE4F514F5150513E513700A0512800669
:10076300751200751302AD0BAC0AAF19AE18121057
:1007730080EF4E7007121078EF4E600B050BE50B00
:100783007002050A020852AD0BAC0AAF19AE18127B
:100793000F07EF4E7007120EFFEF4E6011750C003E
:1007A300750D01E50B150B7002150A0208520208BC
:1007B3004CAD13AC12AF17AE16120F07EF4E700B02
:1007C300AD13AC12120F03EF4E600AE5131513704D
:1007D300331512802FAD13AC12AF17AE1612108063
:1007E300EF4E700BAD13AC1212107CEF4E600FE4A2
:1007F300F514F5150513E513700A05128006751433
:1008030000751502AD0BAC0AAF19AE18120F07EF46
:100813004E7007120EFFEF4E600AE50B150B7002C8
:10082300150A802BAD0BAC0AAF19AE18121080EF6E
:100833004E7007121078EF4E600FE4F50CF50D05BE
:100843000BE50B700A050A8006750C00750D021284
:050853000858020ECB65
:10109000040E1504040404040404040404150E04DA
:0810A0000000001F1F0000000A
:081109007F027EEFDEFEDFFC39
:0111110022BB
:0E10E600C2A68F80D2A7121109C2A70211095B
:100FFF00CFCDCFCECCCE120BA17C007D0A120BA190
:04100F00ED2430FF9D
:0E101300D2A68F80D2A7121109C2A70211091E
:1010BF00AE07BE0104ED148006BE0209ED243F44C5
:0610CF0080FF1210E62272
:1010A8007F381210E67F0C1210E67F061210E67FDA
:0710B800011210E6020D6CAD
:0A10FF00AC031210BFAF040210137F
:060FDC008B388A39893AC6
:100FE2001210BFE4FDAB38AA39A93A8D827583008D
:0C0FF200120B62FF60061210130D80E964
:010FFE0022D0
:0C0F32007F0AEA24FFFDE434FFFC7E008F
:080F3E008E238F248C258D26E3
:100F46007F017E00E4FBEBC39526E5256480F874FB
:0E0F56008098500AAC23AD24120B8F0B80E85C
:010F6400226A
:041042008A208B2154
:101046001210BFAA22EAD39400400D120F32AC2030
:08105600AD21120FFF1A80ED1D
:01105E00226F
:100E20001210BFC3EA64809480400B7F2B12101312
:100E30008A2C8B2D800E7F2D121013C3E49BF52D71
:100E4000E49AF52CAA2BEAD39400400D120F32AC91
:090E50002CAD2D120FFF1A80EDEC
:010E59002276
:040E5A008A308B311E
:100E5E001210BFAA32EAD3940040297F10120F3429
:100E6E00AC30AD31CFCDCFCECCCE120BA1EF540FD7
:100E7E00FEC3940AEE5004243080022437FF121071
:040E8E00131A80D1E2
:010E9200223D
:040E93008A358B36DB
:100E97001210BFAA37EAD394004028EA24FFFDE4E2
:100EA70034FFFC7F027E00120F3EAC35AD36CFCD4E
:100EB700CFCECCCE120BA1EF54012430FF1210136A
:030EC7001A80D2BC
:010ECA002205
:100D6C007F401210E6E4FDFC74902DF58274103C6B
:100D7C00F583E493FF1210130DBD00010CED640814
:100D8C004C70E57F481210E6E4FCFD74982DF5825A
:100D9C0074103CF583E493FF1210130DBD00010C8D
:100DAC00ED64084C70E57F501210E6E4FCFD74A075
:100DBC002DF58274103CF583E493FF1210130DBDD6
:090DCC0000010CED64084C70E517
:010DD50022FB
:03000000020BF6FA
:0C0BF600787FE4F6D8FD75813A020C3DD2
:100B6200BB010CE58229F582E5833AF583E0225048
:100B720006E92582F8E622BBFE06E92582F8E22292
:0D0B8200E58229F582E5833AF583E49322AC
:100B8F00EF8DF0A4A8F0CF8CF0A428CE8DF0A42E7A
:020B9F00FE2234
:100BA100BC000BBE0029EF8DF084FFADF022E4CC38
:100BB100F875F008EF2FFFEE33FEEC33FCEE9DEC01
:100BC100984005FCEE9DFE0FD5F0E9E4CEFD22ED47
:100BD100F8F5F0EE8420D21CFEADF075F008EF2F91
:100BE100FFED33FD4007985006D5F0F222C398FD82
:050BF1000FD5F0EA221F
:100C0200020F94E493A3F8E493A34003F68001F265
:100C120008DFF48029E493A3F85407240CC8C333F3
:100C2200C4540F4420C8834004F456800146F6DFC2
:100C3200E4800B01020408102040809010D5E47E6D
:100C4200019360BCA3FF543F30E509541FFEE493B7
:100C5200A360010ECF54C025E060A840B8E493A37E
:100C6200FAE493A3F8E493A3C8C582C8CAC583CAA9
:100C7200F0A3C8C582C8CAC583CADFE9DEE780BE61
:0110E500000A
:00000001FF
