:0A052100EF1FAC0670011E4C600EC7
:0C052B007527027528EFD528FDD527FAAA
:0305370080E82237
:0B059E00EF1FAC0670011E4C70F6222F
:10057F000216000002180000021A0000020E00000E
:10031700E4F51CF51D1204611200031201E0E4F577
:1003270016F517F518F519F51AF51BF50EF50FF56E
:100337001CF51D1200031201E0051DE51D700205E5
:0C0347001CC39480E51C940040E980CCAD
:10046100120552E4F510F511F512751301F5147525
:100471001502F508750901F50A750B01F50C750DE5
:04048100020204CAA5
:1004CA00AB13AA12AD15AC14E4FFFE120431AB0B48
:0D04DA00AA0AAD0DAC0C7F017E00020431BA
:1000030030972CA295E43325E0FFA296E43325E054
:1000130025E04FFFA294E4334FFF74017E00A8074D
:10002300088005C333CE33CED8F94217EE421630DB
:10003300B72CA2B5E43325E0FFA2B6E43325E025CF
:10004300E04FFFA2B4E4334FFF74017E00A807081A
:100053008005C333CE33CED8F94219EE421830931C
:100063002CA291E43325E0FFA292E43325E025E0BE
:100073004FFFA290E4334FFF74017E00A80708806E
:1000830005C333CE33CED8F9421BEE421A30B32C1C
:10009300A2B1E43325E0FFA2B2E43325E025E04F2B
:1000A300FFA2B0E4334FFF74017E00A80708800568
:0D00B300C333CE33CED8F9420FEE420E22F9
:1002CD008D248B25EF600DC2A3C2A4C2A57F017E34
:1002DD0000120521E524600DD2A3C2A4C2A57F01A1
:1002ED007E00120521E525600DC2A3D2A4C2A57F13
:1002FD00017E00120521E526600DD2A3D2A4C2A570
:0A030D007F017E00120521D2A52217
:1001E000E4F51EE51E1392A0E51EA2E192A1A2E293
:1001F00092A2FFE517AE16A807088006CEA2E71365
:10020000CE13D8F85401F51FE519AE18A81E0880C2
:1002100006CEA2E713CE13D8F85401F520E51BAEA5
:100220001AA81E088006CEA2E713CE13D8F85401F0
:10023000F521E50FAE0EA81E088006CEA2E713CE6C
:1002400013D8F85401F522F526AB21AD20AF1F12CB
:1002500002CD7F327E0012059E051EE51EC3940866
:020260004081DB
:010262002279
:10053A00040E1504040404040404040404150E043B
:08054A000000001F1F0000006B
:0805B3007F027EEFDEFEDFFC9B
:0105BB00221D
:0E059000C2A68F80D2A71205B3C2A70205B380
:1004A800CFCDCFCECCCE1200FF7C007D0A1200FF4C
:0404B800ED2430FF00
:0E04BC00D2A68F80D2A71205B3C2A70205B345
:10056900AE07BE0104ED148006BE0209ED243F4426
:0605790080FF1205902234
:100552007F381205907F0C1205907F061205907F5E
:070562000112059002026383
:0A05A900AC03120569AF040204BCA4
:060485008B3C8A3D893E1C
:10048B00120569E4FDAB3CAA3DA93E8D8275830044
:0C049B001200C0FF60061204BC0D80E9D6
:0104A7002232
:0C03FE007F0AEA24FFFDE434FFFC7E00CF
:08040A008E278F288C298D2A12
:100412007F017E00E4FBEBC3952AE5296480F87432
:0E0422008098500AAC27AD281200ED0B80E840
:0104300022A9
:0404E7008A248B25B3
:1004EB00120569AA26EAD39400400D1203FEAC2430
:0804FB00AD251204A81A80EDE2
:0105030022D5
:10035300120569C3EA64809480400B7F2B1204BCAE
:100363008A308B31800E7F2D1204BCC3E49BF531A0
:10037300E49AF530AA2FEAD39400400D1203FEACA1
:0903830030AD311204A81A80ED1E
:01038C00224E
:04038D008A348B35EE
:10039100120569AA36EAD3940040297F101204009D
:1003A100AC34AD35CFCDCFCECCCE1200FFEF540F54
:1003B100FEC3940AEE5004243080022437FF120455
:0403C100BC1A80D111
:0103C5002215
:0403C6008A398B3AAB
:1003CA00120569AA3BEAD394004028EA24FFFDE417
:1003DA0034FFFC7F027E0012040AAC39AD3ACFCD5D
:1003EA00CFCECCCE1200FFEF54012430FF1204BC52
:0303FA001A80D294
:0103FD0022DD
:100263007F40120590E4FDFC743A2DF58274053C41
:10027300F583E493FF1204BC0DBD00010CED64088B
:100283004C70E57F48120590E4FCFD74422DF58225
:1002930074053CF583E493FF1204BC0DBD00010C0F
:1002A300ED64084C70E57F50120590E4FCFD744A40
:1002B3002DF58274053CF583E493FF1204BC0DBD58
:0902C30000010CED64084C70E52B
:0102CC00220F
:100431008C1E8D1F8A208B21EE7024EF146007041F
:10044100701D7D0380027D0C7F01120569AF1F12B3
:1004510004BCAA20AB217526020D7F011204E722FC
:100504007B017A007D027C00E4FFFE1204317B0152
:0D0514007A007D027C007F017E0002043130
:03000000020154A6
:0C015400787FE4F6D8FD75813E02019B27
:1000C000BB010CE58229F582E5833AF583E02250F5
:1000D00006E92582F8E622BBFE06E92582F8E2223F
:0D00E000E58229F582E5833AF583E4932259
:1000ED00EF8DF0A4A8F0CF8CF0A428CE8DF0A42E27
:0200FD00FE22E1
:1000FF00BC000BBE0029EF8DF084FFADF022E4CCE5
:10010F00F875F008EF2FFFEE33FEEC33FCEE9DECAD
:10011F00984005FCEE9DFE0FD5F0E9E4CEFD22EDF3
:10012F00F8F5F0EE8420D21CFEADF075F008EF2F3D
:10013F00FFED33FD4007985006D5F0F222C398FD2E
:05014F000FD5F0EA22CB
:10016000020317E493A3F8E493A34003F68001F29B
:1001700008DFF48029E493A3F85407240CC8C333A0
:10018000C4540F4420C8834004F456800146F6DF6F
:10019000E4800B010204081020408090057FE47E7B
:1001A000019360BCA3FF543F30E509541FFEE49364
:1001B000A360010ECF54C025E060A840B8E493A32B
:1001C000FAE493A3F8E493A3C8C582C8CAC583CA56
:1001D000F0A3C8C582C8CAC583CADFE9DEE780BE0E
:01058F00006B
:00000001FF
