:0A02E100EF1FAC0670011E4C600E0A
:0C02EB007508027509EFD509FDD508FA69
:0302F70080E8227A
:0B034300EF1FAC0670011E4C70F6228C
:100101001202C77B037A00E4FDFCFFFE12021C7F92
:10011100B87E0B1202E17B047A007D017C007F0135
:100121007E0012021C7FB87E0B1202E17B047A0072
:0D0131007D027C007F017E0012021C80FE1A
:1002FA00040E1504040404040404040404150E047E
:08030A000000001F1F000000AD
:06032800C2A18F80D2A2E9
:08032E007F027EEFDEFEDFFC22
:0103360022A4
:0A034E00C2A0120328C2A202032E6F
:10026F00CFCDCFCECCCE1200427C007D0A12004201
:04027F00ED2430FF3B
:0A028300D2A0120328C2A202032E2B
:10031200AE07BE0104ED148006BE0209ED243F447F
:0603220080FF12034E22D1
:1002C7007F3812034E7F0C12034E7F0612034E7FB8
:0A02D7000112034E1200970202AA62
:0A035800AC03120312AF040202838B
:06024C008B268A27892899
:10025200120312E4FDAB26AA27A9288D827583001A
:0C026200120003FF60061202830D80E909
:01026E00226D
:0C01E9007F0AEA24FFFDE434FFFC7E00E6
:0801F5008E118F128C138D1482
:1001FD007F017E00E4FBEBC39514E5136480F87476
:0E020D008098500AAC11AD121200300B80E840
:01021B0022C0
:04028D008A0E8B0F3B
:10029100120312AA10EAD39400400D1201E9AC0E28
:0802A100AD0F12026F1A80ED8F
:0102A9002232
:10013E00120312C3EA64809480400B7F2B12028359
:10014E008A1A8B1B800E7F2D120283C3E49BF51B34
:10015E00E49AF51AAA19EAD39400400D1201E9ACFB
:09016E001AAD1B12026F1A80ED9C
:010177002265
:040178008A1E8B1F31
:10017C00120312AA20EAD3940040297F101201EB3B
:10018C00AC1EAD1FCFCDCFCECCCE120042EF540F54
:10019C00FEC3940AEE5004243080022437FF12026E
:0401AC00831A80D161
:0101B000222C
:0401B1008A238B24EE
:1001B500120312AA25EAD394004028EA24FFFDE49D
:1001C50034FFFC7F027E001201F5AC23AD24CFCDB8
:1001D500CFCECCCE120042EF54012430FF12028361
:0301E5001A80D2AB
:0101E80022F4
:100097007F4012034EE4FDFC74FA2DF58274023C96
:1000A700F583E493FF1202830DBD00010CED640894
:1000B7004C70E57F4812034EE4FCFD74022DF58277
:1000C70074033CF583E493FF1202830DBD00010C1A
:1000D700ED64084C70E57F5012034EE4FCFD740A92
:1000E7002DF58274033CF583E493FF1202830DBD63
:0900F70000010CED64084C70E5F9
:0101000022DC
:10021C008C088D098A0A8B0BEE7024EF146007048E
:10022C00701D7D0380027D0C7F01120312AF091239
:10023C000283AA0AAB0B7510020D7F0112028D22EC
:1002AA007B017A007D027C00E4FFFE12021C7B01C6
:0D02BA007A007D027C007F017E0002021CA4
:03000000020337C1
:0C033700787FE4F6D8FD758128020101F2
:10000300BB010CE58229F582E5833AF583E02250B2
:1000130006E92582F8E622BBFE06E92582F8E222FC
:0D002300E58229F582E5833AF583E4932216
:10003000EF8DF0A4A8F0CF8CF0A428CE8DF0A42EE4
:02004000FE229E
:10004200BC000BBE0029EF8DF084FFADF022E4CCA2
:10005200F875F008EF2FFFEE33FEEC33FCEE9DEC6B
:10006200984005FCEE9DFE0FD5F0E9E4CEFD22EDB1
:10007200F8F5F0EE8420D21CFEADF075F008EF2FFB
:10008200FFED33FD4007985006D5F0F222C398FDEC
:050092000FD5F0EA2289
:00000001FF
