:0A0FBB00EF1FAC0670011E4C600E23
:0C0FC500751F027520EFD520FDD51FFA26
:030FD10080E82293
:0B104C00EF1FAC0670011E4C70F62276
:0C103F00011500011600011700010E0051
:100EF000120F1412099C120003E4F518F5191209D7
:100F00009C0519E51970020518C39480E518940032
:040F100040EC80DF52
:100F1400121004E4F50FF510F511751201F51375AF
:100F24001402F508750901F50A750B01F50C750D28
:040F340002020E297E
:100E29007D037F0112101BAF14120F6F751E02ABE9
:100E390012AA117D047F01120F9E7D0C7F011210F1
:100E49001BAF0D120F6F751E02AB0BAA0A7D0D7F2A
:040E590001020F9EE5
:10099C00309724A295E43325E0FFA296E43325E0BA
:1009AC0025E04FFFA294E4334FFF7401A8070880A1
:1009BC0002C333D8FC421530B724A2B5E43325E08A
:1009CC00FFA2B6E43325E025E04FFFA2B4E4334F99
:1009DC00FF7401A807088002C333D8FC4216309379
:1009EC0024A291E43325E0FFA292E43325E025E034
:1009FC004FFFA290E4334FFF7401A807088002C395
:100A0C0033D8FC421730B324A2B1E43325E0FFA263
:100A1C00B2E43325E025E04FFFA2B0E4334FFF747E
:0F0A2C0001A807088002C333D8FC420E020CD584
:100CD500E4F51AE51A1392A0E51AA2E192A1A2E29F
:100CE50092A2FFE515A807088002C313D8FC54019A
:100CF500FFAE1AE516A806088002C313D8FC5401F6
:100D0500FDAE1AE517A806088002C313D8FC5401E6
:100D1500FBAE1AE50EA806088002C313D8FC5401E1
:0E0D2500F51E120D34051AE51AC3940840A5F8
:010D3300229D
:10081B00E51445137049FE120EC38F17AF157E00FA
:10082B00120EC58F15120FD6D3EF9400EE64809481
:10083B008040030208C8120FD4D3EF9400EE6480FB
:10084B0094805079AF0E120FD6D3EF9400EE6480E4
:10085B0094805069AF0E7E00120EC58F0E805EE540
:10086B0014640145137056AF0EFE120EC58F0EAFFA
:10087B00157E00120EC58F157E00AD12AC11120E37
:10088B0096D3EF9400EE648094805031AF0E7E00CF
:10089B00AD12AC11120E96D3EF9400EE64809480DF
:1008AB00501BAF177E00AD12AC11120E96D3EF9406
:1008BB0000EE648094805005120EC18F17E50D4534
:1008CB000C706FAF17FEAD0BAC0A120EC98F17AFC2
:1008DB00167E00AD0BAC0A120EC98F16AF157E003B
:1008EB00AD0BAC0A120FDCD3EF9400EE6480948056
:1008FB00400302099BAF177E00AD0BAC0A120FDC55
:10090B00D3EF9400EE64809480400302099BAF0EFA
:10091B007E00AD0BAC0A120FDCD3EF9400EE6480BB
:10092B009480506CAF0E7E00AD0BAC0A120EC98FCB
:10093B000E22E50D6401450C7056AF0EFEAD0BACEF
:10094B000A120EC98F0EAF167E00AD0BAC0A120E3B
:10095B00C98F16AF15120E90D3EF9400EE648094EE
:10096B0080502DAF0E120E90D3EF9400EE64809456
:10097B0080501DAF17120E90D3EF9400EE6480944D
:10098B0080500DAF177E00AD0BAC0A120EC98F173E
:01099B002239
:100D34008D1C8B1DEF600DC2A3C2A4C2A57F017ED2
:100D440000120FBBE51C600DD2A3C2A4C2A57F0193
:100D54007E00120FBBE51D600DC2A3D2A4C2A57F05
:100D6400017E00120FBBE51E600DD2A3D2A4C2A562
:0A0D74007F017E00120FBBD2A52202
:080FD400AF177E00AD12AC1155
:100FDC00EFA805088006CEA2E713CE13D8F8FF229F
:060E90007E00AD0BAC0A70
:100E9600AB07AA06ED14F9EBA801088006CEA2E777
:100EA60013CE13D8F8A801088005C333CE33CED8A5
:0B0EB600F9F4FFEEF45AFEEF5BFF22A0
:040A3B00AB07AA0655
:100A3F00900020EB7810CEA2E713CE13D8F8FF4E1C
:100A4F00601074F02582F58274FF3583F583AA0652
:100A5F00AB07EAFF3395E0FE4F601074F82582F57F
:100A6F008274FF3583F583AA06AB07EBAE027804D9
:100A7F00CEA2E713CE13D8F8FF4E601074FC258278
:100A8F00F58274FF3583F583AA06AB07EBAE0278C8
:100A9F0002CEA2E713CE13D8F8FF4E601074FE25D6
:100AAF0082F58274FF3583F583AA06AB07EAA2E7C6
:100ABF0013FEEB134EC3E5829BFDE5839AFCC374D3
:060ACF00209DFFE49CFEE7
:010AD50022FE
:100BF600EF4E7003FEFF227D017C00EF4E701374F2
:100C0600102DFDE433FCEF7810CEA2E713CE13D8F7
:100C1600F8FFEF700D74082DFDE43CFCEEFF3395F4
:100C2600E0FEEF540F701374042DFDE43CFCEF78E6
:100C360004CEA2E713CE13D8F8FFEF540370137453
:100C4600022DFDE43CFCEF7802CEA2E713CE13D8CA
:100C5600F8FFEF5401FFC3ED9FFFEC9400CF240192
:040C6600CF3400FE89
:010C6A002267
:100F7D00AB07AA06ED14FF74017E00A807088005D3
:100F8D00C333CE33CED8F94203EE4202AE02AF03E5
:010F9D002231
:080EC1007E00AF17AD12AC1169
:100EC900AB07AA06ED14FF74017E00A80708800588
:100ED900C333CE33CED8F9F4FFEEF4FEEF5203EE6E
:070EE9005202AE02AF03222A
:10000300E514640245136003020392E50D6402459F
:100013000C60030201EBAF15FE120EC5EF4E603507
:10002300AF15120FD6EF4E600FE4F513F51405125A
:10003300E51270210511801DAF157E00AD12AC11C4
:10004300120E96EF4E600E751300751401E512152E
:100053001270021511AF167E00E50B450A7C006095
:10006300047D0180027D00120EC9EF4E6035AF168C
:100073007E00AD0BAC0A120FDCEF4E600FE4F50C03
:10008300F50D050BE50B701B050A8017AF16120E55
:1000930090EF4E600E750C00750D01E50B150B709E
:1000A30002150AE51464024513600BE50B6402456F
:1000B3000A6003020815E514640245136003020194
:1000C30052AF17FE120EC5EF4E603A120FD4EF4E29
:1000D3006010E4F513F5140512E512706F051102B3
:1000E3000815AF177E00AD12AC11120E96EF4E70CD
:1000F30003020815751300751401E5121512700239
:100103001511020815AF0E7E00120EC5EF4E7003D7
:10011300020815AF0E120FD6EF4E6010E4F513F57B
:10012300140512E51270020511020815AF0E7E00C8
:10013300AD12AC11120E96EF4E7003020815751333
:1001430000751401E512151270021511020815AF9E
:10015300177E00AD0BAC0A120EC9EF4E603CAF1711
:100163007E00AD0BAC0A120FDCEF4E6010E4F50C11
:10017300F50D050BE50B7002050A020815AF171202
:100183000E90EF4E7003020815750C00750D01E516
:100193000B150B7002150A020815AF0E7E00AD0B8E
:1001A300AC0A120EC9EF4E7003020815AF0E7E00A3
:1001B300AD0BAC0A120FDCEF4E6010E4F50CF50D3D
:1001C300050BE50B7002050A020815AF0E120E901F
:1001D300EF4E7003020815750C00750D01E50B1544
:1001E3000B7002150A020815E50D450C60030202A7
:1001F300C3AF15FE120EC5EF4E6037AF15120FD603
:10020300EF4E600FE4F513F5140512E51270620565
:1002130011805EAF157E00AD12AC11120E96EF4E3B
:10022300604F751300751401E51215127002151154
:10023300803F120EC1EF4E700AAF0EFE120EC5EFD5
:100243004E602E120FD4EF4E700AAF0EFE120FD86F
:10025300EF4E600FE4F513F5140512E51270120565
:1002630011800E7513007514010512E51270020555
:1002730011AF177E00AD0BAC0A120FDCEF4E700E00
:10028300AF16FEAD0BAC0A120FDCEF4E600B050B85
:10029300E50B7002050A020815AF0E120E90EF4E21
:1002A300700AAF16FE120E92EF4E6011750C0075B8
:1002B3000D01E50B150B7002150A02081502080F54
:1002C300AF157E00120EC5EF4E6037AF15120FD675
:1002D300EF4E600FE4F513F5140512E512702105D6
:1002E30011805EAF157E00AD12AC11120E96EF4E6B
:1002F300604F751300751401E51215127002151184
:10030300803F120EC1EF4E700AAF0EFE120EC5EF04
:100313004E602E120FD4EF4E700AAF0EFE120FD89E
:10032300EF4E600FE4F513F5140512E51270120594
:1003330011800E7513007514010512E51270020584
:1003430011AF0E120E90EF4E700AAF16FE120E9200
:10035300EF4E600BE50B150B7002150A020815AF83
:10036300177E00AD0BAC0A120FDCEF4E700EAF160A
:10037300FEAD0BAC0A120FDCEF4E6010E4F50CF58A
:100383000D050BE50B7002050A02081502080FE5BF
:1003930014451360030205D6E50D6402450C6003A2
:1003A30002048FAF16FEAD0BAC0A120EC9EF4E60FE
:1003B30037AF167E00AD0BAC0A120FDCEF4E600FA9
:1003C300E4F50CF50D050BE50B701B050A8070AF0A
:1003D30016120E90EF4E6067750C00750D01E50B5C
:1003E300150B7002150A8057AF177E00AD0BAC0AD0
:1003F300120EC9EF4E700EAF0EFEAD0BAC0A120E0D
:10040300C9EF4E603AAF177E00AD0BAC0A120FDC9A
:10041300EF4E700EAF0EFEAD0BAC0A120FDCEF4EBB
:10042300600FE4F50CF50D050BE50B7012050A8062
:100433000E750C00750D01E50B150B7002150A12F4
:100443000FD4EF4E700AAF15FE120FD8EF4E600BAC
:100453000512E51270020511020815AF157E00ADF5
:1004630012AC11120E96EF4E7011AF0EFEAD12AC20
:1004730011120E96EF4E70030206C8751300751421
:1004830001E512151270021511020815E50D450C50
:100493006003020538AF15FE120FD8EF4E700AAF96
:1004A30017FE120FD8EF4E600A0512E512703705DA
:1004B300118033AF157E00AD12AC11120E96EF4EC4
:1004C300700EAF0EFEAD12AC11120E96EF4E601011
:1004D300751300751401E5121512700A15118006C3
:1004E300751300751402AF167E00AD0BAC0A120F24
:1004F300DCEF4E700EAF17FEAD0BAC0A120FDCEF44
:100503004E600B050BE50B7002050A020815AF16CA
:10051300120E90EF4E700AAF0EFE120E92EF4E6067
:1005230011750C00750D01E50B150B7002150A0210
:10053300081502080FAF15120FD6EF4E700AAF174A
:10054300FE120FD8EF4E600A0512E512703705113F
:100553008033AF157E00AD12AC11120E96EF4E70C4
:100563000EAF0EFEAD12AC11120E96EF4E6010756B
:100573001300751401E5121512700A151180067522
:100583001300751402AF16120E90EF4E700AAF0EE1
:10059300FE120E92EF4E600BE50B150B7002150A5F
:1005A300020815AF177E00AD0BAC0A120FDCEF4E3D
:1005B300700EAF16FEAD0BAC0A120FDCEF4E6010DF
:1005C300E4F50CF50D050BE50B7002050A020815A1
:1005D30002080FE50D6402450C60030206D1AF1655
:1005E300FEAD0BAC0A120EC9EF4E6037AF167E009C
:1005F300AD0BAC0A120FDCEF4E600FE4F50CF50DFA
:10060300050BE50B701B050A8070AF16120E90EFF9
:100613004E6067750C00750D01E50B150B70021527
:100623000A8057AF177E00AD0BAC0A120EC9EF4E0E
:10063300700EAF0EFEAD0BAC0A120EC9EF4E603A50
:10064300AF177E00AD0BAC0A120FDCEF4E700EAF8E
:100653000EFEAD0BAC0A120FDCEF4E600FE4F50C8F
:10066300F50D050BE50B7002050A800E750C007580
:100673000D01E50B150B7002150AAF157E00AD12C7
:10068300AC11120E96EF4E700EAF0EFEAD12AC1102
:10069300120E96EF4E600BE5121512700215110241
:1006A3000815AF15120FD6EF4E700AAF17FE120FD3
:1006B300D8EF4E6010E4F513F5140512E51270023D
:1006C3000511020815751300751402020815E50DCE
:1006D300450C6003020777AF15FEAD12AC11120E85
:1006E30096EF4E700EAF0EFEAD12AC11120E96EFDA
:1006F3004E600AE5121512702C15118028AF1512E1
:100703000FD6EF4E700AAF17FE120FD8EF4E600FE1
:10071300E4F513F5140512E512700A051180067548
:100723001100751202AF167E00AD0BAC0A120FDC7E
:10073300EF4E700EAF17FEAD0BAC0A120FDCEF4E8F
:10074300600B050BE50B7002050A020815AF1612C4
:100753000E90EF4E700AAF0EFE120E92EF4E601126
:10076300750C00750D01E50B150B7002150A0208D7
:100773001502080FAF157E00AD12AC11120E96EFE5
:100783004E700EAF0EFEAD12AC11120E96EF4E6010
:100793000AE5121512702C15118028AF15120FD609
:1007A300EF4E700AAF17FE120FD8EF4E600FE4F54D
:1007B30013F5140512E512700A051180067513006E
:1007C300751402AF16120E90EF4E700AAF0EFE12A2
:1007D3000E92EF4E600AE50B150B7002150A80327C
:1007E300AF167E00AD0BAC0A120FDCEF4E700EAFEE
:1007F30017FEAD0BAC0A120FDCEF4E600FE4F50CE5
:10080300F50D050BE50B700A050A8006750C0075DE
:080813000D0212081B020E2960
:100FEC00040E1504040404040404040404150E047F
:080FFC000000001F1F000000AF
:081061007F027EEFDEFEDFFCE2
:011069002264
:0E103100C2A68F80D2A7121061C2A702106162
:100F5B00CFCDCFCECCCE120B157C007D0A120B154C
:040F6B00ED2430FF42
:0E0F6F00D2A68F80D2A7121061C2A702106115
:10101B00AE07BE0104ED148006BE0209ED243F4469
:06102B0080FF12103122CB
:101004007F381210317F0C1210317F061210317F9D
:0710140001121031020C6B08
:0A105700AC0312101BAF04020F6F70
:060F38008B348A35893676
:100F3E0012101BE4FDAB34AA35A9368D82758300E1
:0C0F4E00120AD6FF6006120F6F0D80E93A
:010F5A002274
:0C0E5D007F0AEA24FFFDE434FFFC7E0065
:080E69008E1F8F208C218D22C9
:100E71007F017E00E4FBEBC39522E5216480F874D9
:0E0E81008098500AAC1FAD20120B030B80E8C6
:010E8F002240
:040F9E008A1C8B1D01
:100FA20012101BAA1EEAD39400400D120E5DAC1C57
:080FB200AD1D120F5B1A80ED6A
:010FBA002214
:100D7E0012101BC3EA64809480400B7F2B120F6FFE
:100D8E008A288B29800E7F2D120F6FC3E49BF529C5
:100D9E00E49AF528AA27EAD39400400D120E5DAC12
:090DAE0028AD29120F5B1A80ED3B
:010DB7002219
:040DB8008A2C8B2DC9
:100DBC0012101BAA2EEAD3940040297F10120E5F4A
:100DCC00AC2CAD2DCFCDCFCECCCE120B15EF540F0E
:100DDC00FEC3940AEE5004243080022437FF120F15
:040DEC006F1A80D129
:010DF00022E0
:040DF1008A318B3286
:100DF50012101BAA33EAD394004028EA24FFFDE42D
:100E050034FFFC7F027E00120E69AC31AD32CFCDCE
:100E1500CFCECCCE120B15EF54012430FF120F6F3D
:030E25001A80D25E
:010E280022A7
:100C6B007F40121031E4FDFC74EC2DF582740F3CC7
:100C7B00F583E493FF120F6F0DBD00010CED6408BB
:100C8B004C70E57F48121031E4FCFD74F42DF582B5
:100C9B00740F3CF583E493FF120F6F0DBD00010C35
:100CAB00ED64084C70E57F50121031E4FCFD74FCD0
:100CBB002DF582740F3CF583E493FF120F6F0DBD7E
:090CCB0000010CED64084C70E519
:010CD40022FD
:03000000020B6A86
:0C0B6A00787FE4F6D8FD758136020BB1EF
:100AD600BB010CE58229F582E5833AF583E02250D5
:100AE60006E92582F8E622BBFE06E92582F8E2221F
:0D0AF600E58229F582E5833AF583E4932239
:100B0300EF8DF0A4A8F0CF8CF0A428CE8DF0A42E06
:020B1300FE22C0
:100B1500BC000BBE0029EF8DF084FFADF022E4CCC4
:100B2500F875F008EF2FFFEE33FEEC33FCEE9DEC8D
:100B3500984005FCEE9DFE0FD5F0E9E4CEFD22EDD3
:100B4500F8F5F0EE8420D21CFEADF075F008EF2F1D
:100B5500FFED33FD4007985006D5F0F222C398FD0E
:050B65000FD5F0EA22AB
:100B7600020EF0E493A3F8E493A34003F68001F297
:100B860008DFF48029E493A3F85407240CC8C33380
:100B9600C4540F4420C8834004F456800146F6DF4F
:100BA600E4800B010204081020408090103FE47E90
:100BB600019360BCA3FF543F30E509541FFEE49344
:100BC600A360010ECF54C025E060A840B8E493A30B
:100BD600FAE493A3F8E493A3C8C582C8CAC583CA36
:100BE600F0A3C8C582C8CAC583CADFE9DEE780BEEE
:01104B0000A4
:00000001FF
